:100000000C942A000C9447000C9447000C94470071
:100010000C9447000C9447000C9447000C94470044
:100020000C9447000C9447000C947F000C947500CE
:100030000C9447000C9447000C9447000C94470024
:100040000C9447000C9447000C9447000C94470014
:100050000C94470011241FBECFE5D8E0DEBFCDBF12
:1000600010E0A0E6B0E0E4E7F1E002C005900D92F8
:10007000A836B107D9F720E0A8E6B0E001C01D928C
:10008000A836B207E1F70E9449000C94B8000C941E
:1000900000008FEF84BB0E948D0067E070E080E677
:1000A00090E00E94970080E390E00E948900C1E008
:1000B00061E070E083E690E00E94B4008133C1F714
:1000C000C5BB2FEF83ED90E3215080409040E1F7D6
:1000D00000C00000A8982FEF83ED90E321508040EE
:1000E0009040E1F700C00000E3CF1F920F920FB6DF
:1000F0000F9211240F900FBE0F901F9018951F9212
:100100000F920FB60F9211240F900FBE0F901F90F9
:1001100018955D9BFECF8CB9089510BC87E689B910
:1001200080B5866880BD8AB188618AB908950F93C9
:100130001F93CF93DF93FC018081882381F0662396
:1001400071F0D62F8F01C0E00E948900CF5FF801C7
:10015000EC0FF11D8081882311F0DC13F5CFDF91C6
:10016000CF911F910F9108955F9BFECF8CB10895A1
:04017000F894FFCF31
:08017400696E69745F6F6B0096
:00000001FF
