:100000000C942A000C943C000C943C000C943C0092
:100010000C943C000C943C000C943C000C943C0070
:100020000C943C000C943C000C946A000C9460000E
:100030000C943C000C943C000C943C000C943C0050
:100040000C943C000C943C000C943C000C943C0040
:100050000C943C0011241FBECFE5D8E0DEBFCDBF1D
:1000600020E0A0E6B0E001C01D92A036B207E1F7A3
:100070000E943E000C9482000C9400008FEF84BB21
:100080000E94740061E070E083E690E00E947E00D0
:10009000813329F482E390E00E945B00F3CF823346
:1000A00029F482E390E00E945B00ECCF82E79FE6B8
:1000B0000E945B00E7CF8FB9779BFECF8FB1089589
:1000C0001F920F920FB60F9211240F900FBE0F9038
:1000D0001F9018951F920F920FB60F9211240F9038
:1000E0000FBE0F901F90189510BC87E689B980B598
:1000F000866880BD8AB188618AB908955F9BFECF0A
:080100008CB10895F894FFCFC3
:00000001FF
