S0270000447269766572735F74656D706C6174655F365F31283130295F365F312834292E73726563E2
S11300000C942A000C943C000C943C000C943C008E
S11300100C943C000C943C000C943C000C943C006C
S11300200C943C000C943C000C946C000C94620006
S11300300C943C000C943C000C943C000C943C004C
S11300400C943C000C943C000C943C000C943C003C
S11300500C943C0011241FBECFE5D8E0DEBFCDBF19
S113006020E0A0E6B0E001C01D92A036B207E1F79F
S11300700E9447000C9484000C9400000E948000AD
S1130080882321F015BA99270E945D0008958FEF07
S113009084BB0E94760081E085BB0E9452000E94CE
S11300A03E00FDCF87B3806B87BBBE98C49A81E5C1
S11300B08DB97098C498C49808958FB9779BFECF72
S11300C08FB108951F920F920FB60F9211240F90C3
S11300D00FBE0F901F9018951F920F920FB60F929C
S11300E011240F900FBE0F901F90189510BC87E637
S11300F089B980B5866880BD8AB188618AB9089556
S10F01005F9BFECF8CB10895F894FFCFF4
S9030000FC
