:100000000C942A000C943C000C943C000C943C0092
:100010000C943C000C943C000C943C000C943C0070
:100020000C943C000C943C000C9467000C945D0014
:100030000C943C000C943C000C943C000C943C0050
:100040000C943C000C943C000C943C000C943C0040
:100050000C943C0011241FBECFE5D8E0DEBFCDBF1D
:1000600020E0A0E6B0E001C01D92A036B207E1F7A3
:100070000E943E000C9471000C9400008FEF8ABB2C
:100080000E945000D2E0C1E00E945700813311F479
:10009000CBBBFACF823311F4DBBBF6CF1BBAF4CF64
:1000A00087B38F7487BBBE9A80E48DB908958FEFB4
:1000B0008FB9779BFECF8FB108951F920F920FB625
:1000C0000F9211240F900FBE0F901F9018951F9242
:1000D0000F920FB60F9211240F900FBE0F901F902A
:0600E0001895F894FFCF13
:00000001FF
