S0270000447269766572735F74656D706C6174655F365F31283130295F365F312832292E73726563E4
S11300000C942A000C943C000C943C000C943C008E
S11300100C943C000C943C000C943C000C943C006C
S11300200C943C000C943C000C9474000C946A00F6
S11300300C943C000C943C000C943C000C943C004C
S11300400C943C000C943C000C943C000C943C003C
S11300500C943C0011241FBECFE5D8E0DEBFCDBF19
S113006020E0A0E6B0E001C01D92A136B207E1F79E
S11300700E9456000C947E000C9400000E946400C0
S113008080936000813311F4D89A0895823311F477
S1130090D8980895833311F4D99A0895843311F4C8
S11300A0D9980895853409F41BBA08958FEF8ABB53
S11300B00E945D000E943E00FDCF87B38F7487BB12
S11300C0BE9A80E48DB908958FEF8FB9779BFECFE8
S11300D08FB108951F920F920FB60F9211240F90B3
S11300E00FBE0F901F9018951F920F920FB60F928C
S11300F011240F900FBE0F901F901895F894FFCF06
S9030000FC
