:100000000C942A000C9447000C9447000C94470071
:100010000C9447000C9447000C9447000C94470044
:100020000C9447000C9447000C9462000C94580008
:100030000C9447000C9447000C9447000C94470024
:100040000C9447000C9447000C9447000C94470014
:100050000C94470011241FBECFE5D8E0DEBFCDBF12
:1000600010E0A0E6B0E0EAE3F1E002C005900D92F6
:10007000A836B107D9F720E0A8E6B0E001C01D928C
:10008000A836B207E1F70E9449000C949B000C943B
:1000900000000E94700067E070E080E690E00E943F
:1000A0007A0061E070E083E690E00E949700F9CF6B
:1000B0001F920F920FB60F9211240F900FBE0F9048
:1000C0001F9018951F920F920FB60F9211240F9048
:1000D0000FBE0F901F9018955D9BFECF8CB90895B1
:1000E00010BC8CE089B980B5866880BD8AB1886112
:1000F0008AB908950F931F93CF93DF93FC018081FA
:10010000882381F0662371F0D62F8F01C0E00E9412
:100110006C00CF5FF801EC0FF11D8081882311F096
:10012000DC13F5CFDF91CF911F910F9108955F9B65
:0A013000FECF8CB10895F894FFCFC4
:08013A00696E69745F6F6B00D0
:00000001FF
