:100000000C942A000C943C000C943C000C943C0092
:100010000C943C000C943C000C943C000C943C0070
:100020000C943C000C943C000C9449000C943F0050
:100030000C943C000C943C000C943C000C943C0050
:100040000C943C000C943C000C943C000C943C0040
:100050000C943C0011241FBECFE5D8E0DEBFCDBF1D
:1000600020E0A0E6B0E001C01D92A036B207E1F7A3
:100070000E943E000C9453000C940000FFCF1F928E
:100080000F920FB60F9211240F900FBE0F901F907A
:1000900018951F920F920FB60F9211240F900FBE5A
:0A00A0000F901F901895F894FFCF01
:00000001FF
