:100000000C942A000C9447000C9447000C94470071
:100010000C9447000C9447000C9447000C94470044
:100020000C9447000C9447000C9496000C948C00A0
:100030000C9447000C9447000C9447000C94470024
:100040000C9447000C9447000C9447000C94470014
:100050000C94470011241FBECFE5D8E0DEBFCDBF12
:1000600010E0A0E6B0E0E2EAF1E002C005900D92F7
:10007000A836B107D9F720E0A8E6B0E001C01D928C
:10008000A836B207E1F70E9462000C94CF000C94EE
:100090000000863619F40E9474000895823619F41F
:1000A0000E9479000895823719F40E947E00089515
:1000B0008C3619F40E9483000895833711F40E944E
:1000C000880008950E94A40067E070E080E690E058
:1000D0000E94AE0061E070E083E690E00E94CB00F9
:1000E00099270E944900F6CF8FEF87BB85E388BB35
:1000F00008958FEF87BB8AE388BB08958FEF87BB96
:1001000086E388BB08958FEF87BB89E388BB08959A
:100110008FEF87BB18BA08951F920F920FB60F92F8
:1001200011240F900FBE0F901F9018951F920F92E1
:100130000FB60F9211240F900FBE0F901F901895BD
:100140005D9BFECF8CB9089510BC8CE089B980B559
:10015000866880BD8AB188618AB908950F931F931C
:10016000CF93DF93FC018081882381F0662371F0B7
:10017000D62F8F01C0E00E94A000CF5FF801EC0FE6
:10018000F11D8081882311F0DC13F5CFDF91CF9131
:100190001F910F9108955F9BFECF8CB10895F89445
:0201A000FFCF8F
:0801A200696E69745F6F6B0068
:00000001FF
