S01F0000447269766572735F74656D706C6174655F365F312836292E73726563BF
S11300000C942A000C943C000C943C000C943C008E
S11300100C943C000C943C000C943C000C943C006C
S11300200C943C000C943C000C9477000C946D00F0
S11300300C943C000C943C000C943C000C943C004C
S11300400C943C000C943C000C943C000C943C003C
S11300500C943C0011241FBECFE5D8E0DEBFCDBF19
S113006020E0A0E6B0E001C01D92A036B207E1F79F
S11300700E943E000C948F000C9400008FEF84BB10
S11300800E94810081E085BB0E945F0061E070E016
S113009083E690E00E948B00813329F482E390E0B0
S11300A00E946800F3CF823329F482E390E00E9437
S11300B06800ECCF85E690E00E946800E7CF87B344
S11300C0806B87BBBE98C49A81E58DB970980895FA
S11300D08FB9779BFECF8FB108951F920F920FB601
S11300E00F9211240F900FBE0F901F9018951F921E
S11300F00F920FB60F9211240F900FBE0F901F9006
S1130100189510BC87E689B980B5866880BD8AB128
S113011088618AB908955F9BFECF8CB10895F894E5
S1050120FFCF0B
S9030000FC
