:100000000C942A000C9447000C9447000C94470071
:100010000C9447000C9447000C9447000C94470044
:100020000C9447000C9447000C94B5000C94AB0062
:100030000C9447000C9447000C9447000C94470024
:100040000C9447000C9447000C9447000C94470014
:100050000C94470011241FBECFE5D8E0DEBFCDBF12
:1000600010E0A0E6B0E0E0EDF1E002C005900D92F6
:10007000A636B107D9F720E0A6E6B0E001C01D9290
:10008000A636B207E1F70E9449000C94E6000C94F2
:10009000000087B38FEF87BB0E94C70065E070E068
:1000A00080E690E00E94D1000E94C300C82F9927EB
:1000B0000E94BF00C13261F4C39A2FE38DE093E048
:1000C000215080409040E1F700C00000C398ECCF81
:1000D000C53711F4C39AE8CFC83711F4C39AE4CFF7
:1000E000C03311F4C39AE0CFC13711F4C39ADCCF07
:1000F000C43711F4C39AD8CFC637A9F4C39A2FE3F3
:100100008DE093E0215080409040E1F700C0000076
:10011000C3982FE38DE093E0215080409040E1F7B9
:1001200000C00000C1CFC93709F0BECFC39A2FE38A
:100130008DE093E0215080409040E1F700C0000046
:10014000C3982FE38DE093E0215080409040E1F789
:1001500000C00000A9CF1F920F920FB60F9211247A
:100160000F900FBE0F901F9018951F920F920FB611
:100170000F9211240F900FBE0F901F9018955D9B4A
:10018000FECF8CB908955F9BFECF8CB1089510BC53
:100190008CE089B980B5866880BD8AB188618AB9EA
:1001A0000895DC012C91222379F0662369F090E018
:1001B0005D9BFECF2CB99F5FFD01E90FF11D2081F2
:1001C000222311F06913F4CF81E00895F894FFCF52
:0601D00061686D6564002A
:00000001FF
